:0E0000000C9483130C9457160C9400000C946F
:10000E0000000C9400000C9400000C9400000C9462
:10001E0000000C9400000C949C180C9400000C949E
:10002E0000000C9400000C945E160C9400000C94CE
:10003E0000000C9400000C9400000C9400000C9432
:10004E0000000C9400000C9400000C9400000C9422
:10005E0000000C944D230C94000000000000003EA4
:10006E005B4F5B3E3E6B4F6B3E1C3E7C3E1C183C1A
:10007E007E3C181C577D571C1C5E7F5E1C00183C76
:10008E001800FFE7C3E7FF0018241800FFE7DBE7BF
:10009E00FF30483A060E2629792926407F050507A6
:1000AE00407F05253F5A3CE73C5A7F3E1C1C080802
:1000BE001C1C3E7F14227F22145F5F005F5F0609C7
:1000CE007F017F006689956A606060606094A2FF20
:1000DE00A29408047E040810207E201008082A1C12
:1000EE0008081C2A08081E101010100C1E0C1E0CDE
:1000FE0030383E3830060E3E0E060000000000007E
:10010E00005F00000007000700147F147F14242AEC
:10011E007F2A1223130864623649562050000807BE
:10012E000300001C2241000041221C002A1C7F1CDF
:10013E002A08083E080800807030000808080808E1
:10014E00000060600020100804023E5149453E0048
:10015E00427F400072494949462141494D331814A6
:10016E00127F1027454545393C4A494931412111F5
:10017E0009073649494936464949291E00001400E7
:10018E00000040340000000814224114141414140A
:10019E00004122140802015909063E415D594E7C68
:1001AE001211127C7F494949363E414141227F411D
:1001BE0041413E7F494949417F090909013E41417B
:1001CE0051737F0808087F00417F41002040413F66
:1001DE00017F081422417F404040407F021C027F75
:1001EE007F0408107F3E4141413E7F090909063ECA
:1001FE004151215E7F091929462649494932030199
:10020E007F01033F4040403F1F2040201F3F4038AA
:10021E00403F631408146303047804036159494D85
:10022E0043007F4141410204081020004141417FBB
:10023E000402010204404040404000030708002031
:10024E00545478407F284444383844444428384431
:10025E0044287F385454541800087E090218A4A468
:10026E009C787F0804047800447D40002040403D87
:10027E00007F1028440000417F40007C0478047801
:10028E007C080404783844444438FC182424181894
:10029E00242418FC7C0804040848545454240404F0
:1002AE003F44243C4040207C1C2040201C3C4030DD
:1002BE00403C44281028444C9090907C4464544C0C
:1002CE004400083641000000770000004136080067
:1002DE0002010204023C2623263C00000000007F9F
:1002EE0001010103000000000000000000000000FA
:1002FE0000000000000000000000000000000000F0
:10030E0000000000000000000000000000000000DF
:10031E0000000000000000000000000000000000CF
:10032E0000000000000000000000000000000000BF
:10033E0000000000000000000000000000000000AF
:10034E00000000000000000000000000000000009F
:10035E00000000000000000000000000000000008F
:10036E00000000000000000000000000000000007F
:10037E00000000000000000000000000000000006F
:10038E00000000000000000000000000000000005F
:10039E000000007F010101030000000000000000CA
:1003AE0000007F4949494900000000003E4949418B
:1003BE00220000000000000000000000000000000D
:1003CE00000000000000437E43000000000000001B
:1003DE000000000000417F410000447D40007C048D
:1003EE0004040C00000000000000000000000000EB
:1003FE00000038545454080000000000385454448F
:10040E0028000000000000000000000000000000B6
:10041E00000000000000457C41007E1111117E7F1E
:10042E00494949337F494949367F01010103E0516A
:10043E004F41FF7F4949494977087F087749494924
:10044E0049367F1008047F7C2112097C7F08142214
:10045E004120413F017F7F020C027F7F0808087F09
:10046E003E4141413E7F0101017F7F090909063E60
:10047E004141412201017F0101274848483F1C228A
:10048E007F221C63140814637F404040FF07080856
:10049E00087F7F407F407F7F407F40FF017F48483D
:1004AE00307F4830007F7F48483000224149493E26
:1004BE007F083E413E462919097F20545454783C0A
:1004CE004A4A49317C545428007C0404040CE054FC
:1004DE004C44FC38545454086C107C106C444454F6
:1004EE0054287C2010087C78422412787C102844F2
:1004FE000020443C047C7C0810087C7C1010107C8E
:10050E0038444444387C0404047C7C1414140838A5
:10051E004444444404047C04040C5050503C1824BD
:10052E007E241844281028447C404040FC0C1010B7
:10053E00107C7C407C407C7C407C40FC047C505099
:10054E00207C5020007C7C5050200028445454388D
:10055E007C10384438085434147C000306090D10FE
:10056E001316191C1F2225292C2F3235383B3E41DC
:10057E0044474A4D505356595C5F6264676A6D70CA
:10058E007375787B7E808386888B8E909395989AF0
:10059E009D9FA2A4A7A9ABAEB0B2B4B7B9BBBDBF65
:1005AE00C1C3C5C7C9CBCDCFD0D2D4D6D7D9DBDC4A
:1005BE00DEDFE1E2E4E5E7E8E9EAECEDEEEFF0F1AB
:1005CE00F2F3F4F5F6F7F7F8F9F9FAFBFBFCFCFD9C
:1005DE00FDFDFEFEFEFFFFFFFFFFFFFFFFFFFFFF24
:1005EE00FEFEFEFDFDFDFCFCFBFBFAF9F9F8F7F74C
:1005FE00F6F5F4F3F2F1F0EFEEEDECEAE9E8E7E50B
:10060E00E4E2E1DFDEDCDBD9D7D6D4D2D0CFCDCB5E
:10061E00C9C7C5C3C1BFBDBBB9B7B4B2B0AEABA934
:10062E00A7A4A29F9D9A989593908E8B888683807F
:10063E007E7B787573706D6A6764625F5C59565322
:10064E00504D4A4744413E3B3835322F2C29252206
:10065E001F1C191613100D090603FFFFFFFFFFFFE6
:10066E00FFFFFFFFFFFFFFFFFFFFFFFFFFFFFFFF8C
:10067E00FFFFFFFFFFFFFFFFFFFFFFFFFFFFFFFF7C
:10068E00FFFFFFFFFFFFFFFFFFFFFFFFFFFFFFFF6C
:10069E00FFFFFFFFFFFFFFFFFFFFFFFFFFFFFFFF5C
:1006AE00FFFFFFFFFFFFFFFFFFFFFFFFFFFFFFFF4C
:1006BE00FFFFFFFFFFFFFFFFFFFFFFFFFFFFFFFF3C
:1006CE00FFFFFFFFFFFFFFFFFFFFFFFFFFFFFFFF2C
:1006DE00FFFFFFFFFFFFFFFFFF0000000000000015
:1006EE0000000000000000000000000000000000FC
:1006FE0000000000000000000000000000000000EC
:10070E0000000000000000000000000000000000DB
:10071E0000000000000000000000000000000000CB
:10072E0000000000000000000000000000000000BB
:10073E0000000000000000000000000000000000AB
:10074E00000000000000000000000000000000009B
:10075E0000000000000000007F7FFFFFFFFFFFFF93
:10076E00FFFFFFFFFFFFFFFFFFFFFFFFFFFFFFFF8B
:10077E00FFFFFFFFFFFFFFFFFFFFFFFFFFFFFFFF7B
:10078E00FFFFFFFFFFFFFFFFFFFFFFFFFFFFFFFF6B
:10079E00FFFFFFFFFFFFFFFFFFFFFFFFFFFFFFFF5B
:1007AE00FFFFFFFFFFFFFFFFFFFFFFFFFFFFFFFF4B
:1007BE00FFFFFFFFFFFFFFFFFFFFFFFFFFFFFFFF3B
:1007CE00FFFFFFFFFFFFFFFFFFFFFFFFFFFFFFFF2B
:1007DE00FFFFFFFFFFFFFFFFFF55555555555555C1
:1007EE0055555555555555555555555555555555AB
:1007FE00555555555555555555555555555555559B
:10080E00555555555555555555555555555555558A
:10081E00555555555555555555555555555555557A
:10082E00555555555555555555555555555555556A
:10083E00555555555555555555555555555555555A
:10084E00555555555555555555555555555555554A
:10085E0055555555555555555555FFFEFDFCFBFA4D
:10086E00F9F8F7F6F5F4F3F2F1F0EFEEEDECEBEA62
:10087E00E9E8E7E6E5E4E3E2E1E0DFDEDDDCDBDA52
:10088E00D9D8D7D6D5D4D3D2D1D0CFCECDCCCBCA42
:10089E00C9C8C7C6C5C4C3C2C1C0BFBEBDBCBBBA32
:1008AE00B9B8B7B6B5B4B3B2B1B0AFAEADACABAA22
:1008BE00A9A8A7A6A5A4A3A2A1A09F9E9D9C9B9A12
:1008CE00999897969594939291908F8E8D8C8B8A02
:1008DE008988878685848382810001020304050648
:1008EE000708090A0B0C0D0E0F1011121314151612
:1008FE001718191A1B1C1D1E1F2021222324252602
:10090E002728292A2B2C2D2E2F30313233343536F1
:10091E003738393A3B3C3D3E3F40414243444546E1
:10092E004748494A4B4C4D4E4F50515253545556D1
:10093E005758595A5B5C5D5E5F60616263646566C1
:10094E006768696A6B6C6D6E6F70717273747576B1
:10095E007778797A7B7C7D7E7F7FFFFEFCFBFAF8D1
:10096E00F7F6F4F3F2F0EFEEECEBEAE8E7E6E4E3A9
:10097E00E2E0DFDEDCDBDAD8D7D6D4D3D1D0CFCDF0
:10098E00CCCBC9C8C7C5C4C3C1C0BFBDBCBBB9B839
:10099E00B7B5B4B3B1B0AFADACABA9A8A7A5A4A37E
:1009AE00A1A09F9D9C9B99989795949391908F8DC4
:1009BE008C8B89888785848381807E7D7C7A79780B
:1009CE007675747271706E6D6C6A69686665646254
:1009DE0061605E5D5C5A595856555555555555557D
:1009EE0055555555555555555555555555555555A9
:1009FE005555555555555555555555555555555599
:100A0E005555555555555555555555555555555588
:100A1E005555555555555555555555555555555578
:100A2E005555555555555555555555555555555568
:100A3E005555555555555555555555555555555558
:100A4E005555555555555555555555555555555548
:100A5E0055555555555555555555FFFF5555FFFF90
:100A6E005555FFFF5555FFFF5555FFFF5555FFFFD8
:100A7E005555FFFF5555FFFF5555FFFF5555FFFFC8
:100A8E005555FFFF5555FFFF5555FFFF5555FFFFB8
:100A9E005555FFFF5555FFFF5555FFFF5555FFFFA8
:100AAE005555FFFF5555FFFF5555FFFF5555FFFF98
:100ABE005555FFFF5555FFFF5555FFFF5555FFFF88
:100ACE005555FFFF5555FFFF5555FFFF5555FFFF78
:100ADE005555FFFF5555FFFF555555555555555510
:100AEE0055555555555555555555555555555555A8
:100AFE005555555555555555555555555555555598
:100B0E005555555555555555555555555555555587
:100B1E005555555555555555555555555555555577
:100B2E005555555555555555555555555555555567
:100B3E005555555555555555555555555555555557
:100B4E005555555555555555555555555555555547
:100B5E0055555555555555555555FFFF7F7FFFFF3B
:100B6E007F7FFFFF7F7FFFFF7F7FFFFF7F7FFFFF87
:100B7E007F7FFFFF7F7FFFFF7F7FFFFF7F7FFFFF77
:100B8E007F7FFFFF7F7FFFFF7F7FFFFF7F7FFFFF67
:100B9E007F7FFFFF7F7FFFFF7F7FFFFF7F7FFFFF57
:100BAE007F7FFFFF7F7FFFFF7F7FFFFF7F7FFFFF47
:100BBE007F7FFFFF7F7FFFFF7F7FFFFF7F7FFFFF37
:100BCE007F7FFFFF7F7FFFFF7F7FFFFF7F7FFFFF27
:100BDE007F7FFFFF7F7FFFFF7F00007F7F00007F13
:100BEE007F00007F7F00007F7F00007F7F00007FFF
:100BFE007F00007F7F00007F7F00007F7F00007FEF
:100C0E007F00007F7F00007F7F00007F7F00007FDE
:100C1E007F00007F7F00007F7F00007F7F00007FCE
:100C2E007F00007F7F00007F7F00007F7F00007FBE
:100C3E007F00007F7F00007F7F00007F7F00007FAE
:100C4E007F00007F7F00007F7F00007F7F00007F9E
:100C5E007F00007F7F00007F7F7FC8C1D13AF1F215
:100C6E00E5EDEEEAE0F0E4E8FF2E20202020202043
:100C7E002020202020202020202020202020202066
:100C8E002020202020202020202020202020202056
:100C9E002020202020202020202020202020202046
:100CAE002020202020202020202020202020202036
:100CBE002020202020202020202020202020202026
:100CCE0000C8C1D13AF1F2E5EDEEEAE0F0E4E8FF5A
:100CDE0020F120E3E8EFE5F0F2EEEDE8F7E5F1EADA
:100CEE00EEE920E1EEEBE5E7EDFCFE2E20202020E4
:100CFE0020202020202020202020202020202020E6
:100D0E0020202020202020202020202020202020D5
:100D1E0020202020202020202020202020202020C5
:100D2E002020202020202000C8C1D13AEEF1F2F080
:100D3E00FBE920E8EDF4E0F0EAF220ECE8EEEAE080
:100D4E00F0E4E02E20202020202020202020202033
:100D5E002020202020202020202020202020202085
:100D6E002020202020202020202020202020202075
:100D7E002020202020202020202020202020202065
:100D8E00202020202020202020202020202000C8CD
:100D9E00C1D13AF1F2E5EDEEEAE0F0E4E8FF2C2005
:100DAE00EFEEF1F2E8EDF4E0F0EAF2EDFBE920EA25
:100DBE00E0F0E4E8EEF1EAEBE5F0EEE72E2020209D
:100DCE002020202020202020202020202020202015
:100DDE002020202020202020202020202020202005
:100DEE0020202020202020202020202020202020F5
:100DFE00202020202000C8C1D13AF1F2E5EDEEEA24
:100E0E00E0F0E4E8FF2C20EFEEF1F2E8EDF4E0F094
:100E1E00EAF2EDFBE920EAE0F0E4E8EEF1EAEBE5D8
:100E2E00F0EEE720F120EDE5E4EEF1F2E0F2EEF780
:100E3E00EDEEF1F2FCFE20EAF0EEE2EEEEE1F0E095
:100E4E00F9E5EDE8FF2E2020202020202020202074
:100E5E0020202020202020202020202000C8C1D1AA
:100E6E003AF1F2E5EDEEEAE0F0E4E8FF2CEFEEF118
:100E7E00F2E8EDF4E0F0EAF2EDFBE920EAE0F0E46E
:100E8E00E8EEF1EAEBE5F0EEE72CEDE5E4EEF1F25B
:100E9E00E0F2EEF7EDEEE520EAF0EEE2EEEEE1F056
:100EAE00E0F9E5EDE8FF20F120E3E8EFE5F0F2EE02
:100EBE00EDE8E5E92E2020202020202020202020F3
:100ECE0020202000C3E8EFE5F0F2EEEDE8F7E5F1C3
:100EDE00EAE0FF20E1EEEBE5E7EDFC20F120E4E8AF
:100EEE00F1F6E8F0EAF3EBFFF2EEF0EDEEE920FDBD
:100EFE00EDF6E5F4E0EBEEEFE0F2E8E5E92E20208A
:100F0E0020202020202020202020202020202020D3
:100F1E0020202020202020202020202020202020C3
:100F2E002020202020202020202000C3E8EFE5F004
:100F3E00F2EEEDE8F7E5F1EAE0FF20E1EEEBE5E7B2
:100F4E00EDFC20F120E4E8F1F6E8F0EAF3EBFFF235
:100F5E00EEF0EDEEE920FDEDF6E5F4E0EBEEEFE080
:100F6E00F2E8E5E92E20202020202020202020203D
:100F7E002020202020202020202020202020202063
:100F8E002020202020202020202020202020202053
:100F9E002000CDE0F0F3F8E5EDE8FF20F0E8F2EC0C
:100FAE00E020E1E5E720C8C1D12E2020202020201E
:100FBE002020202020202020202020202020202023
:100FCE002020202020202020202020202020202013
:100FDE002020202020202020202020202020202003
:100FEE0020202020202020202020202020202020F3
:100FFE00202020202020202000CCE8EEEAE0F0E4A3
:10100E00E8F22E202020202020202020202020202A
:10101E0020202020202020202020202020202020C2
:10102E0020202020202020202020202020202020B2
:10103E0020202020202020202020202020202020A2
:10104E002020202020202020202020202020202092
:10105E0020202020202020202020202020202000A2
:10106E00CFEEF0EEEA20F1E5F0E4F6E02028F0E530
:10107E00E2ECE0F2E8F7E5F1EAE8E92C20E2F0EE46
:10108E00E6E4E5EDEDFBE92920F120EDE5E4EEF1F6
:10109E00F2E0F2EEF7EDEEF1F2FCFE20EAF0EEE217
:1010AE00EEEEE1F0E0F9E5EDE8FF2E202020202025
:1010BE002020202020202020202020202020202022
:1010CE0020202020202000CFEEF0EEEA20F1E5F0E7
:1010DE00E4F6E02028F0E5E2ECE0F2E8F7E5F1EAEC
:1010EE00E8E92C20E2F0EEE6E4E5EDEDFBE9292C53
:1010FE0020EDE5E4EEF1F2E0F2EEF7EDEEF1F2FCCA
:10110E0020EAF0EEE2EEEEE1F0E0F9E5EDE8FF20A8
:10111E00F120E3E8EFE5F0F2EEEDE8E5E92E202030
:10112E002020202020202020202020202000C1F060
:10113E00EEEDF5E8E0EBFCEDE0FF20E0F1F2ECE0A7
:10114E002E20202020202020202020202020202083
:10115E002020202020202020202020202020202081
:10116E002020202020202020202020202020202071
:10117E002020202020202020202020202020202061
:10118E002020202020202020202020202020202051
:10119E002020202000C1F0EEEDF5E8F22028EEF13F
:1011AE00F2F0FBE9292E20202020202020202020D4
:1011BE002020202020202020202020202020202021
:1011CE002020202020202020202020202020202011
:1011DE002020202020202020202020202020202001
:1011EE0020202020202020202020202020202020F1
:1011FE00202020202020202020202000CFEDE5E2FE
:10120E00ECEEEDE8FF2028EEF1F2F0E0FF2C20EE00
:10121E00E1EEF1F2F0E5EDE8E520F5F0EEEDE8F7C0
:10122E00E5F1EAEEE9292E202020202020202020A2
:10123E0020202020202020202020202020202020A0
:10124E002020202020202020202020202020202090
:10125E002020202020202020202020202020202080
:10126E00202000DFE7E2E5EDEDE0FF20E1EEEBE52B
:10127E00E7EDFC20E6E5EBF3E4EAE020E82031328E
:10128E002DF2E820EFE5F0F1F2EDEEE920EAE8F8D4
:10129E00EAE82E20202020202020202020202020A0
:1012AE002020202020202020202020202020202030
:1012BE002020202020202020202020202020202020
:1012CE0020202020202020202000C3E0F1F2F0E892
:1012DE00F22E202020202020202020202020202020
:1012EE0020202020202020202020202020202020F0
:1012FE0020202020202020202020202020202020E0
:10130E0020202020202020202020202020202020CF
:10131E0020202020202020202020202020202020BF
:10132E0020202020202020202020202020202020AF
:10133E0000D5EEEBE5F6E8F1F2EE2DEFE0EDEAF09A
:10134E00E5E0F2E8F22E2020202020202020202090
:10135E00202020202020202020202020202020207F
:10136E00202020202020202020202020202020206F
:10137E00202020202020202020202020202020205F
:10138E00202020202020202020202020202020204F
:10139E002020202020202000CAEEEBE8F22E202074
:1013AE00202020202020202020202020202020202F
:1013BE00202020202020202020202020202020201F
:1013CE00202020202020202020202020202020200F
:1013DE0020202020202020202020202020202020FF
:1013EE0020202020202020202020202020202020EF
:1013FE00202020202020202020202020202000C45B
:10140E00E8F1F6E8F0EAF3EBFFF2EEF0EDE0FF20A4
:10141E00FDEDF6E5F4E0EBEEEFE0F2E8FF2028E07C
:10142E00F2E5F0EEF1EAEBE5F0EEE720F1EEF1F3A6
:10143E00E4EEE220E3EEEBEEE2EDEEE3EE20ECEE98
:10144E00E7E3E0292E20202020202020202020202D
:10145E00202020202020202020202020202020207E
:10146E00202020202000C2E5F0F2E5E1F0E0EBFCC8
:10147E00EDEE2DE1E0E7E8EBFFF0EDE0FF20EDE52E
:10148E00E4EEF1F2E0F2EEF7EDEEF1F2FC2E2020BA
:10149E00202020202020202020202020202020203E
:1014AE00202020202020202020202020202020202E
:1014BE00202020202020202020202020202020201E
:1014CE0020202020202020202020202000CDE5E9F3
:1014DE00F0EE2DF6E8F0EAF3EBFFF2EEF0EDE0FFC2
:1014EE0020E4E8F1F2EEEDE8FF2E2020202020206F
:1014FE0020202020202020202020202020202020DE
:10150E0020202020202020202020202020202020CD
:10151E0020202020202020202020202020202020BD
:10152E0020202020202020202020202020202020AD
:10153E0020202000D1EEF1F2EEFFEDE8E520EFEEF7
:10154E00F1EBE520EDE0F0F3F8E5EDE8FF20ECEE51
:10155E00E7E3EEE2EEE3EE20EAF0EEE2EEEEE1F0AD
:10156E00E0F9E5EDE8FF2E2020202020202020208D
:10157E00202020202020202020202020202020205D
:10158E00202020202020202020202020202020204D
:10159E002020202020202020202000D0E0E4E8EA97
:1015AE00F3EBE8F22C20EDE5E2F0E8F2FB2E202042
:1015BE00202020202020202020202020202020201D
:1015CE00202020202020202020202020202020200D
:1015DE0020202020202020202020202020202020FD
:1015EE0020202020202020202020202020202020ED
:1015FE0020202020202020202020202020202020DD
:10160E002000CEF1F2E5EEF5EEEDE4F0EEE720EFA0
:10161E00EEE7E2EEEDEEF7EDE8EAE02E20202020F8
:10162E0020202020202020202020202020202020AC
:10163E00202020202020202020202020202020209C
:10164E00202020202020202020202020202020208C
:10165E00202020202020202020202020202020207C
:10166E00202020202020202000CDE5E2F0EEE7FB18
:10167E002E2020202020202020202020202020204E
:10168E00202020202020202020202020202020204C
:10169E00202020202020202020202020202020203C
:1016AE00202020202020202020202020202020202C
:1016BE00202020202020202020202020202020201C
:1016CE00202020202020202020202020202020002C
:1016DE00D1E0F5E0F0EDFBE920E4E8E0E1E5F22E03
:1016EE0020202020202020202020202020202020EC
:1016FE0020202020202020202020202020202020DC
:10170E0020202020202020202020202020202020CB
:10171E0020202020202020202020202020202020BB
:10172E0020202020202020202020202020202020AB
:10173E0020202020202000CFF0EEF1F2E0F2E8F29F
:10174E002E2020202020202020202020202020207D
:10175E00202020202020202020202020202020207B
:10176E00202020202020202020202020202020206B
:10177E00202020202020202020202020202020205B
:10178E00202020202020202020202020202020204B
:10179E002020202020202020202020202000C0E4F7
:1017AE00E5EDEEECE020EFF0EEF1F2E0F2FB2E20B4
:1017BE00202020202020202020202020202020201B
:1017CE00202020202020202020202020202020200B
:1017DE0020202020202020202020202020202020FB
:1017EE0020202020202020202020202020202020EB
:1017FE0020202020202020202020202020202020DB
:10180E002020202000CFE8E5EBEEEDE5F4F0E8F245
:10181E002E202020202020202020202020202020AC
:10182E0020202020202020202020202020202020AA
:10183E00202020202020202020202020202020209A
:10184E00202020202020202020202020202020208A
:10185E00202020202020202020202020202020207A
:10186E00202020202020202020202000C2EEF1EF7A
:10187E00E0EBE8F2E5EBFCEDFBE520E7E0E1EEEB7B
:10188E00E5E2E0EDE8FF2C20FDEDE4EEECE5F2F014
:10189E00E8EEE72E202020202020202020202020CF
:1018AE00202020202020202020202020202020202A
:1018BE00202020202020202020202020202020201A
:1018CE00202020202020202020202020202020200A
:1018DE00202000CDE0F0F3F8E5EDE8FF20ECE5ED9B
:1018EE00F1F2F0F3E0EBFCEDEEE3EE20F6E8EAEBDE
:1018FE00E02E20202020202020202020202020200C
:10190E0020202020202020202020202020202020C9
:10191E0020202020202020202020202020202020B9
:10192E0020202020202020202020202020202020A9
:10193E0020202020202020202000CDE5E9F0EEE41C
:10194E00E5F0ECE8F22C20FDEAE7E5ECE02E2020B5
:10195E002020202020202020202020202020202079
:10196E002020202020202020202020202020202069
:10197E002020202020202020202020202020202059
:10198E002020202020202020202020202020202049
:10199E002020202020202020202020202020202039
:1019AE0000CFF1EEF0E8E0E72E20202020202020CE
:1019BE002020202020202020202020202020202019
:1019CE002020202020202020202020202020202009
:1019DE0020202020202020202020202020202020F9
:1019EE0020202020202020202020202020202020E9
:1019FE0020202020202020202020202020202020D9
:101A0E002020202020202000C3F0E8EFEF2C20CE55
:101A1E00D0C2C82E202020202020202020202020B0
:101A2E0020202020202020202020202020202020A8
:101A3E002020202020202020202020202020202098
:101A4E002020202020202020202020202020202088
:101A5E002020202020202020202020202020202078
:101A6E00202020202020202020202020202000D2D6
:101A7E00EEEDE7E8EBEBE8F22E20202020202020F0
:101A8E002020202020202020202020202020202048
:101A9E002020202020202020202020202020202038
:101AAE002020202020202020202020202020202028
:101ABE002020202020202020202020202020202018
:101ACE002020202020202020202020202020202008
:101ADE00202020202000D5E8F0F3F0E3E8F7E5F130
:101AEE00EAE0FF20EFE0F2EEEBEEE3E8FF2E20203F
:101AFE0020202020202020202020202020202020D8
:101B0E0020202020202020202020202020202020C7
:101B1E0020202020202020202020202020202020B7
:101B2E0020202020202020202020202020202020A7
:101B3E0020202020202020202020202000D2F0E075
:101B4E00E2ECE02C20E220F2EEEC20F7E8F1EBE5FF
:101B5E0020ECEDEEE6E5F1F2E2E5EDEDE0FF20E85A
:101B6E0020F1EEF7E5F2E0EDEDE0FF2E2020202053
:101B7E002020202020202020202020202020202057
:101B8E002020202020202020202020202020202047
:101B9E002020202020202020202020202020202037
:101BAE0020202000CEE6EEE3E820E820EEF2ECEE78
:101BBE00F0EEE6E5EDE8FF2E20202020202020206C
:101BCE002020202020202020202020202020202007
:101BDE0020202020202020202020202020202020F7
:101BEE0020202020202020202020202020202020E7
:101BFE0020202020202020202020202020202020D7
:101C0E002020202020202020202000C0F0F2F0E80C
:101C1E00F22E2020202020202020202020202020D6
:101C2E0020202020202020202020202020202020A6
:101C3E002020202020202020202020202020202096
:101C4E002020202020202020202020202020202086
:101C5E002020202020202020202020202020202076
:101C6E002020202020202020202020202020202066
:101C7E002000C0F2E5F0EEF1EAEBE5F0EEE720F140
:101C8E00EEF1F3E4EEE220EAEEEDE5F7EDEEF1F241
:101C9E00E5E92E202020202020202020202020209A
:101CAE002020202020202020202020202020202026
:101CBE002020202020202020202020202020202016
:101CCE002020202020202020202020202020202006
:101CDE00202020202020202000C3E0E9ECEEF0E8B8
:101CEE00F22C20F4F0EEEDF2E8F22E20202020204F
:101CFE0020202020202020202020202020202020D6
:101D0E0020202020202020202020202020202020C5
:101D1E0020202020202020202020202020202020B5
:101D2E0020202020202020202020202020202020A5
:101D3E0020202020202020202020202020202000B5
:101D4E00CFE5F0E8E4EEEDF2E8F22E2020202020A0
:101D5E002020202020202020202020202020202075
:101D6E002020202020202020202020202020202065
:101D7E002020202020202020202020202020202055
:101D8E002020202020202020202020202020202045
:101D9E002020202020202020202020202020202035
:101DAE0020202020202000D1E5EAF1F3E0EBFCED2D
:101DBE00FBE520F0E0F1F1F2F0EEE9F1F2E2E02ED7
:101DCE002020202020202020202020202020202005
:101DDE0020202020202020202020202020202020F5
:101DEE0020202020202020202020202020202020E5
:101DFE0020202020202020202020202020202020D5
:101E0E002020202020202020202020202000CDE077
:101E1E00F0F3F8E5EDE8FF20F0E5F7E5E2EEE3EEAE
:101E2E0020F0E0E7E2E8F2E8FF2E2020202020203C
:101E3E002020202020202020202020202020202094
:101E4E002020202020202020202020202020202084
:101E5E002020202020202020202020202020202074
:101E6E002020202020202020202020202020202064
:101E7E0020202020000002020205050605050404AC
:101E8E000202020505060404040404040205050307
:101E9E0005040404040402050504040404040202F7
:101EAE0002050505050202020202020505050502EC
:101EBE0002020404020505060204040404040205D9
:101ECE0005060204040404040404040403030304C6
:101EDE0004040404040403030304040404020202BD
:101EEE0002050504040404020202020505040202AE
:101EFE0002020505010504040202020205050105A0
:101F0E000404040404040303030404040404040486
:101F1E00030303040404040404020201050204047E
:101F2E00040404020201050204040202020505066D
:101F3E000605020202020205050606050202040457
:101F4E000404020505040404040404040205050443
:101F5E000404040404040402020404040404040437
:101F6E00040202040404020205050502020204042E
:101F7E000202050505020202040402020202010128
:101F8E000105060202020202010101050602020219
:101F9E0001050503030505040202010505030303FC
:101FAE0004040202020505050502020202020205F0
:101FBE0005050502020202020205060105020404DD
:101FCE0002020205060105020404040402050505C9
:101FDE0005050404040402050505050504040202B2
:101FEE0002050504040502020202020505040405A9
:101FFE000202040404040403030305040404040499
:10200E000403030404040404040404030304040486
:10201E000404040404030304040404040303030576
:10202E00050505050404040404040404050504045C
:10203E000303030305040404040404040404040455
:10204E00040402020202050506060505020202024A
:10205E00050506060505040402020505060602022C
:10206E000404020205050606020204040403020229
:10207E00040404040404040302020404040402011C
:10208E0005060605030304040201050606050303FF
:10209E0004040205050505050202020202050505F6
:1020AE0005050303020204040403030101060505EA
:1020BE0004040403030101060505050505020203D8
:1020CE0004040505050505020203040405050202C4
:1020DE0002010101010102020202020101010101DC
:1020EE0002020404040301060106050504040403A8
:1020FE00010601060505020205050505060604048E
:10210E00020205050505060604040404040403037F
:10211E000601050504040404030306010505020572
:10212E00010205050502020102050102050505026F
:10213E000201020202020403040205050202020267
:10214E000403040205050202050506060602040440
:10215E000202050506060602040405050606060229
:10216E000202020205050606060202020202050529
:10217E00060604040305020205050606040403050B
:10218E00020202020505040403040502020205050B
:10219E0004040304050202020202020505050505F8
:1021AE0002020202020505050505020202020505EC
:1021BE0005060505020203030404040605050202D2
:1021CE0002020501010505050202020205010105D3
:1021DE0005050403060505040404040404040304AD
:1021EE0004040404040404040303050404040404A2
:1021FE0004040404040404040404000080AE80D526
:10220E00808080A8803F80D380008040808D8014A5
:10221E008020800080A180C880DA8012808180CFEB
:10222E0080D980F180DB804080A480A680AF000042
:10223E000000000000000000000000000000000090
:10224E000000000000000000000000000000000080
:10225E000000000000000000000000000000000070
:10226E0000000000000000000000000000808080E0
:10227E0000000000000000000000000000000080D0
:10228E0080C0C00000000000000000000000000040
:10229E000000000000000000000000000000000030
:1022AE000000000000000000000000000000000020
:1022BE000000000000000000000000000000000010
:1022CE00000080C0E0F0F8FCF8E000000000000024
:1022DE000000000000000000000000808080808070
:1022EE0000808000000000808080808000FFFFFF63
:1022FE00000000008080808000008080000080FF51
:10230E00FF808000808000808080800080800000C0
:10231E00000000808000008C8E84000080F8F8F8A9
:10232E008000000000000000000000000000F0F03F
:10233E00F0F0F0F0F0F0F0F0F0F0E0E0C08000E04F
:10234E00FCFEFFFFFF7FFFFFFFFFFF00000000000E
:10235E00000000000000000000FEFFC701010101A7
:10236E0083FFFF00007CFEC70101010183FFFFFF19
:10237E000038FEC78301010183C7FFFF000001FF84
:10238E00FF010100FFFF0701010100007FFF800038
:10239E000000FFFF7F0000FFFFFF000001FFFFFFB7
:1023AE000100000000000000000000000000030F0C
:1023BE003F7F7FFFFFFFFFFFFFFFE7C7C78F8F9FA7
:1023CE00BFFFFFC3C0F0FFFFFFFFFFFCFCFCFCFCE8
:1023DE00FCFCFCF8F8F0F0E0C0000103030303037B
:1023EE0001030300000000010303030301010301C5
:1023FE0000000001030303030101030300000003B7
:10240E0003000000030300000000000000010303AE
:10241E000303030100000001030100000003030198
:10242E00000000000000000000000000000000009E
:10243E000080C0E0F0F9FFFFFFFFFF3F1F0F87C7CF
:10244E00F7FFFF1F1F3DFCF8F8F8F87C7DFFFFFF3C
:10245E00FFFFFFFFFF7F3F0F07003030000000003F
:10246E00000000000000000000000000000000005E
:10247E000000FEFEFC000000000000000000000056
:10248E000000000000000000000000E0C00000009E
:10249E0000000000000000003030000000000000CE
:1024AE00000000000000000000000000000000C05E
:1024BE00FEFFFFFFFFFFFFFFFFFF7F7F3F1F0F07A7
:1024CE001F7FFFFFF8F8FFFFFFFFFFFEF8E00000A1
:1024DE0000010000000000000000FEFE000000FCF5
:1024EE00FEFC0C06060EFCF80000F0F81C0E0606AC
:1024FE00060CFFFFFF0000FEFE00000000FCFEFCCD
:10250E0000183C7E66E6CE84000006FFFF0606FC41
:10251E00FEFC0C0606060000FEFE0000C0F8FC4E97
:10252E004646464E7C7840183C76E6CECC8000007F
:10253E00000000000000000000000000000000008D
:10254E00000001070F1F1F3F3F3F3F1F0F030000FB
:10255E00000000000000000000000F0F0000000F40
:10256E000F0F000000000F0F000003070E0C1818CD
:10257E000C060F0F0F0000010F0E0C180C0F0701A9
:10258E0000040E0C180C0F070000000F0F00000FB8
:10259E000F0F0000000000000F0F00000007070CD7
:1025AE000C181C0C060600040E0C180C0F0720C18C
:1025BE00E0F2E0F0E5FF3A007600C2FBE1E5F0E87C
:1025CE00F2E53A00D2F0E0EDF1E0E8F03A2D00CC81
:1025DE00E5E4E0EFF2EEED3A2B00C2FBE1F0E0EDC8
:1025EE000020D2F0E0EDF1E0E8F0200020CCE5E4B0
:1025FE00E0EFF2EEED2000C2FBE1E5F0E8F2E500DF
:10260E00EFE0F6E8E5EDF2E000CFE0F6E8E5EDF21A
:10261E002000D3E4E5F0E6E8202B2000E4EBFF20D9
:10262E00EDEEE2EEE900F3F1F2E0EDEEE2EAE82E95
:10263E000020D1EDE0F7E0EBE03F20002D20CDE5CE
:10264E00F22C2B20C4E00020CAD3D0D1202000D100
:10265E00CDC0D7C0CBC000C7E0E12E204E6F20000A
:10266E00F0E5E6E8EC202000EFE0F6E8E5EDF2001C
:10267E00F1E5E0EDF1202000D2F0E0EDF12BC3E822
:10268E00EFED002BC3E8EFEDEEE700CDE0E6ECE872
:10269E00F2E5002D28EFF3F1EA290053696E502080
:1026AE003031346D5300D3F1F2E0EDEEE2EAE000AA
:1026BE00E2F0E5ECE5EDE8003737C3F620302E35D5
:1026CE006D5300493D006D4100C2FBEAEBFEF7E59C
:1026DE00EDE8E50020CFEEEAE02120000700010042
:1026EE0002000822320001030A22800382033C22E8
:1026FE0001008407EA260000F894EE27EFBBF1E014
:10270E00F5BFE5BF8DE0A2E0BB27ED938A95E9F713
:10271E0080E098E0A0E0B1E0ED930197E9F7ECEEF0
:10272E00F6E285919591009761F0A591B59105908E
:10273E001590BF01F00105900D920197E1F7FB0195
:10274E00F0CFE0E0EEBBEFEFEDBFE8E0EEBFC0E0B4
:10275E00D3E00C941A1B0E94D0240030E4E01E0734
:10276E004CF4A2E8B3E0A00FB11FE0E0EC930F5FD2
:10277E001F4FF3CF099119910895BA93AA93AD8182
:10278E00AA237AF0AC81BD81A038E0E0BE074CF4FC
:10279E00AB81AA2332F0AA81BB81A034E0E0BE0750
:1027AE000CF01AC0E881F981E130A0E0FA0721F4BB
:1027BE000E94D524E1290EC0309729F40E94D52419
:1027CE00E095E12107C0E230A0E0FA0729F40E946B
:1027DE00D524E125DB01EC9326960895BA93AA93AE
:1027EE0022970E94F929AC85BD85A038E0E0BE078E
:1027FE0024F0EFE7F0E0EC87FD87AD85AA231AF40D
:10280E00E0E0EC87ED87A889B989A038E0E0BE0743
:10281E0024F0EFE7F0E0E88BF98BA989AA231AF4EC
:10282E00E0E0E88BE98BAA85BB85A034E0E0BE072B
:10283E0024F0EFE3F0E0EA87FB87AB85AA231AF4D6
:10284E00E0E0EA87EB87AE85BF85A034E0E0BE0707
:10285E0024F0EFE3F0E0EE87FF87AF85AA231AF4AA
:10286E00E0E0EE87EF87EC85FD85A889B989EA1748
:10287E00FB071CF44FEF5FEF02C041E050E0EA852A
:10288E00FB85AE85BF85EA17FB071CF4EFEFFFEF64
:10289E0002C0E1E0F0E0EE83FF830E94ED24D90157
:1028AE00A00FB11F0E94EF2924F500240016010687
:1028BE006CF4F801D9010E94672936973CF4FA01AD
:1028CE00A889B989EA0FFB1FE88BF98B0024021641
:1028DE00030664F4F901D8010E946729369734F48F
:1028EE00EE81FF810E940F25EE87FF870E94ED2467
:1028FE00D6CF0E94002A62960895BA93AA931A938D
:10290E000A930A851B85EE81FF810E9414250E17FE
:10291E001F0794F41A930A930E9419251A930A9387
:10292E00EA85FB850E941E25BA93AA93AA85BB85CC
:10293E0055DF0F5F1F4FE7CF198108812C96089541
:10294E00AA930E94D0240530E0E01E07ACF40E944A
:10295E002425E00FF11FEE57FC4FBF01AA81E5E0E1
:10296E00EA9FF001E00FF11FE859FF4FE491DB0100
:10297E00EC930F5F1F4FE7CF0E942425E957FC4FC2
:10298E00A0E0A08319810881279608950E942F2523
:10299E006CF4AC85BD85A034E0E0BE073CF40E942B
:1029AE003A25BB231AF00E9441250AF4B3C020E059
:1029BE0030E02630E0E03E07C4F5E5E0F0E0E21757
:1029CE00F30711F450E002C00E944C2500E010E025
:1029DE000830E0E01E0734F550FF20C0AF81B88507
:1029EE00119759F4F9010E940F25FA93EA93F80111
:1029FE000E940F250E94562511C040E00E945C25C2
:102A0E006CF4E0E0EE830E94632534F40E946A25A4
:102A1E00EE81EF5FEE83F7CF4F5FF0CF56950F5FEE
:102A2E001F4FD6CF2F5F3F4FC4CF74C00E942F25AC
:102A3E006CF4AC85BD85A034E0E0BE073CF40E948A
:102A4E003A25BB231AF00E9441250AF463C000E028
:102A5E0010E0EF81F8850E171F07F4F40E9487250A
:102A6E009F010E948725BF01EF81F8850E948C256A
:102A7E00E60FF71F2E173F0764F4F8010E94912509
:102A8E00E20FF31FEE57FC4FA0E0A0832F5F3F4FE6
:102A9E00E8CF0F5F1F4FDDCF20E030E02630E0E0C3
:102AAE003E07C4F5E5E0F0E0E217F30711F450E05D
:102ABE0002C00E944C2500E010E00830E0E01E0746
:102ACE0034F550FF20C0AF81B885119759F4F90144
:102ADE000E940F25FA93EA93F8010E940F250E9497
:102AEE00562511C040E00E945C256CF4E0E0EE83B8
:102AFE000E94632534F40E946A25EE81EF5FEE8317
:102B0E00F7CF4F5FF0CF56950F5F1F4FD6CF2F5F8A
:102B1E003F4FC4CF0E94002A60960895BA93AA939D
:102B2E000E94D024EE81FF810E171F0714F5F801C5
:102B3E000E948C25AA81BB810E944F29AC85BD8540
:102B4E00EA0FFB1FFA93EA93EC85FD85FA93EA935D
:102B5E00F801AC85BD85EA0FFB1FE491EA93E98588
:102B6E00FA85FA93EA93A985BA8510DF0F5F1F4F96
:102B7E00D9CF198108812E960895A0E9B1E00E945F
:102B8E00B12278940E949625E2E30E949D25089535
:102B9E000E94A525E0E8E0930103E1E2E093020341
:102BAE00E0E8E0930303EA85E0930403E0E8E093B2
:102BBE000503EE81E0930603E0E8E0930703E2E20B
:102BCE00E0930803E0E8E0930903E885E0930A0345
:102BDE00E0E8E0930B03EC81E0930C030E94962552
:102BEE00ECE00E949D25E885F9850E94912530969E
:102BFE008F01EC81FD810E949125E058FF4F0E1749
:102C0E001F07C4F5E0E4E0930103EA85FB850E0F90
:102C1E001F1F20E030E0AA85BB85EE81FF81EA1BF5
:102C2E00FB0B31962E173F0774F4F901EE5FFC4F44
:102C3E00DF01F8010F5F1F4FEE57FC4FE081EC9361
:102C4E002F5F3F4FE8CFAE81BF81EFE7F0E0EA1B89
:102C5E00FB0B0E0F1F1F0E949625A985AE5FED85FB
:102C6E00AE1BAA93E0E0F3E0FA93EA93A0E00E9491
:102C7E00E022BFCF58C3AA93E881E06CE0937C00BA
:102C8E0085E38A95F1F7E0917A00E064E0937A00AB
:102C9E00E0917A00E071E1F30E94AA252196089551
:102CAE00EA93EFB7689420F8EFBFE99118950A926E
:102CBE001A92FA926A937A938A939A93AA93BA93F0
:102CCE00EA93FA93EFB7EA93F59B3DC1F69BBDC02D
:102CDE000E94B425A0919C07AE3F48F40E94BD25EA
:102CEE00F0E0E859FA4FE491E093B300A7C0E0E0BA
:102CFE00E0939C070E94C425A134E4E5BE07E9E8F1
:102D0E008E07E0E09E079CF00E94CD25E054F4452E
:102D1E0069487040DF01CB01EFE8F0E060E070E061
:102D2E000E949129E050F84F0E94D6253CC00E9487
:102D3E00C425A138EDE8BE07EBE58E07E0E09E075F
:102D4E00BCF00E94CD25E058FD486B457040DF0178
:102D5E00CB01E5E3F0E060E070E00E949129A0EE87
:102D6E00B4EEAE1BBF0BA0939207B09393071BC09C
:102D7E00F19B04C00E94DB25349703C00E94DB2523
:102D8E003496E0939207F09393070E94E025A134C6
:102D9E00EDEEBE0708F0F19A0E94E025A03EE4EEAB
:102DAE00BE0708F4F1980E94E52538F1F09B07C0A4
:102DBE00A0919E07A03810F40E94F02503C0E1E018
:102DCE00E0939E07F09AE8B5E03071F4E7B5E13490
:102DDE0010F0E0E4E7BD0E94F62518F40E94FC25F1
:102DEE0001C0E0E0E7BD08C00E94012618F40E9471
:102DFE00072602C00E940D2621C0F09907C0A0919F
:102E0E009E07A03110F40E94132603C0E1E0E09368
:102E1E009E07F098E7B5EF3F49F40E9418261CF480
:102E2E000E94272601C0E8E9E8BD08C00E942C26B2
:102E3E0019F00E94422602C00E944826A0919C07CB
:102E4E00A03811F40E944E267DC0E0EEE09385007E
:102E5E00E0ECE09384000E94BD2521F4EFEFE093B7
:102E6E00B30070C0E6E0E0938500E0E0E0938400FC
:102E7E00A0919C07A23009F058C00E944E26E0E0B7
:102E8E00E093B3000E94E52538F1F09B07C0A091B6
:102E9E009E07A03810F40E94F02503C0E1E0E093F5
:102EAE009E07F09AE8B5E03071F4E7B5E13410F022
:102EBE00E0E4E7BD0E94F62518F40E94FC2501C04F
:102ECE00E0E0E7BD08C00E94012618F40E94072624
:102EDE0002C00E940D2621C0F09907C0A0919E0746
:102EEE00A03110F40E94132603C0E1E0E0939E0788
:102EFE00F098E7B5EF3F49F40E9418261CF40E94A3
:102F0E00272601C0E8E9E8BD08C00E942C2619F06A
:102F1E000E94422602C00E9448260E94CD25E258F9
:102F2E00F040604070400E945626A0919C07A5304C
:102F3E0048F0E2EEE0938500E4ECE0938400E0E0FC
:102F4E00E0939C07E4C0EEEFE0938500E0E4E093AD
:102F5E008400A0919C07AE3F30F5A230A9F4E0ECBE
:102F6E00E0937C008BE18A95F1F7E0917A00E064C2
:102F7E00E0937A00E0917A00E071E1F30E94AA25D5
:102F8E00E0938E07F0938F07F0919F07E0E0E859EA
:102F9E00FA4FDF010E94BD25F0E0EA0FFB1FE4911E
:102FAE00E093B300B4C0A0919C07AE3FA1F4EBE454
:102FBE00E0938500E0E8E0938400F0919F07E0E065
:102FCE00E859FA4FE250FF4FE491E093B300E091DD
:102FDE009C07EF5F9AC0F19B09C0A0919607B09134
:102FEE0097070E94DB25EA1BFB0B08C0E0919607B2
:102FFE00F09197070E94E025EA0FFB1FE0939207DE
:10300E00F09393070E94E025A136EAEEBE0708F082
:10301E00F19A0E94E025A838E3E1BE0708F4F19882
:10302E000E94B4250E94CD25EF56F04060407040BE
:10303E007F936F93FF93EF930E94E025E0E6FAEE05
:10304E00EA1BFB0BDF01E2E5F6E00E945429AF918B
:10305E00BF918F919F91662777270E94F028A093AA
:10306E00A107B093A2078093A3079093A4070E9491
:10307E00E52538F1F09B07C0A0919E07A03810F40B
:10308E000E94F02503C0E1E0E0939E07F09AE8B5B8
:10309E00E03071F4E7B5E13410F0E0E4E7BD0E94F2
:1030AE00F62518F40E94FC2501C0E0E0E7BD08C03B
:1030BE000E94012618F40E94072602C00E940D26C7
:1030CE0021C0F09907C0A0919E07A03110F40E9474
:1030DE00132603C0E1E0E0939E07F098E7B5EF3FBB
:1030EE0049F40E9418261CF40E94272601C0E8E924
:1030FE00E8BD08C00E942C2619F00E94422602C08C
:10310E000E944826E0E0E0939D07E0939C07E9913A
:10311E00EFBFF991E991B991A9919991899179911D
:10312E006991F990199009901895EA93EFB7EA937F
:10313E00F49B04C0E0918D07EF5F03C0E0918D0713
:10314E00E150E0938D07E093B400E0918D07E030FD
:10315E0029F4F49B02C0F49801C0F49AE991EFBFF0
:10316E00E99118950E94A525AE81BF811A9764F446
:10317E000E9419250E9419250E945F260E946C2626
:10318E000E947126E0E31BC0AE81BF81A436E0E051
:10319E00BE0734F40E9474260E941925E0E306C08F
:1031AE000E9486260E941925E22FE05DEA930E9476
:1031BE00AF260E946C260E947126E02FE05DEA93F6
:1031CE000E94AF260E94BA260E9471260E94BF2638
:1031DE00EC81FD810E948C250E9414250E9471268F
:1031EE00EEE20E94CA269FC00E94A525AE81BF8135
:1031FE001A9774F40E9419250E9419250E945F26C1
:10320E000E948C250E9414250E947126E0E31DC0A9
:10321E00AE81BF81A436E0E0BE0734F40E9474266E
:10322E000E941925E0E306C00E9486260E941925F9
:10323E00E22FE05DEA930E94AF260E948C250E9449
:10324E0014250E947126E02FE05DEA930E94AF26BE
:10325E000E946C260E9471260E94BF2664C00E94A6
:10326E00A525AE81BF81ECE3F0E00E9467298F01B6
:10327E00ACE3B0E00E94D3260A30E0E01E0734F43F
:10328E000E9419250E941925E0E30DC0D8010E9465
:10329E00DC260E944F290E1B1F0B0E9419250E942F
:1032AE001925E22FE05DEA930E94AF260E948C253D
:1032BE000E9414250E947126E02FE05D0E94CA260E
:1032CE00EC81FD810E946C260E947126EAE30E9429
:1032DE00E426AB85BC855ADBAE81BF811A9744F4D8
:1032EE00EC81FD810E94BA260E947126E0E30EC099
:1032FE00AE81BF810E94DC260E94D326EC81FD8127
:10330E000E94BA260E947126E22FE05DEA930E9487
:10331E00AF26A8E1B0E00E944F290E9414250E941A
:10332E0071260E94BF260E94022A2C960895F79AB3
:10333E00EEEFFFEF5E2E6F2EF79B71C10E94EA2615
:10334E00499915C00E94F4260E94F8260E94FD2677
:10335E00D9F7DD24EE240E9414272CF40E9419279D
:10336E000E942427F8CFE1E0F0E05E0E6F1E4A992E
:10337E0022C00E94F4260E9429270E94FD26D9F71A
:10338E00DD24EE240E9414272CF40E9419270E949B
:10339E002427F8CF0E94C425A03AE6E8BE07E1E054
:1033AE008E07E0E09E0714F0F79805C0E52DF62D88
:1033BE0031975E2E6F2EEAE2F0E0E515F60524F465
:1033CE00EEEFFFEF5E2E6F2EEEEFFFEF5E166F0647
:1033DE0024F4EAE2F0E05E2E6F2EBDD933244424AD
:1033EE00E2E0F0E03E164F061CF577248824E5E176
:1033FE00F0E07E168F06CCF40E942E270E94332713
:10340E00E0E0F0E00E942129E02161F00E943927DE
:10341E00FA93EA934A923A920E942E270E943C27F0
:10342E000E9441270E945627E2CF0E945B27D8CFE9
:10343E000E94602741F177248824EBE0F0E07E16AD
:10344E008F060CF50E942E270E943327E0E0F0E055
:10345E000E942129E021A1F00E9468270E946F2777
:10346E00A52DB62D12960E943C27EA0FFB1F0E9437
:10347E007627E70DF81DE4910E94E4260E947D2731
:10348E000E945627DACFE4E0F0E03E2E4F2EE7E022
:10349E00F0E03E164F060CF577248824E5E1F0E0C7
:1034AE007E168F06BCF40E942E279D9784F40E94F0
:1034BE003927FA93EA934A923A92E32DF42DE50DC9
:1034CE00F61D3197DF010E943C270E9441270E9482
:1034DE005627E4CF0E945B27DACF0E9481270E94F5
:1034EE0081270E9486270E948B2733244424E6E6F8
:1034FE00F0E03E164F060CF091C0ECE0F0E09E2E90
:10350E00AF2E00249014A0040CF485C077248824D8
:10351E00EAE0F0E07E168F060CF068C0A32DB42D05
:10352E00A70DB81D1A97D4F00E946827E90DFA1D51
:10353E000E946F27E52DF62D32960E947627DF0129
:10354E00E32DF42DE70DF81D3A97EA0FFB1FE491DA
:10355E000E94E426A2E0B0E069DA2CC0BB24CC24A1
:10356E00ECE0F0E0BE16CF062CF5EBE0F1E00E94A9
:10357E008F270E949327CF01ECE0F1E00E948F2766
:10358E000E949327E081DC01EC93EBE8F1E00E94CE
:10359E008F270E949327CF01ECE8F1E00E948F273E
:1035AE000E949327E081DC01EC93E1E0F0E0BE0E97
:1035BE00CF1ED6CFE52DF62D32960E947627DF014F
:1035CE00E72DF82DE30DF41D3B97EA0FFB1FA49199
:1035DE00AE3211F4332444240E94602721F0E6E633
:1035EE00F0E03E2E4F2E0E94562792CFA0E0499932
:1035FE00A1E0E0E04A99E1E0EA2339F00E94812758
:10360E000E949A27A3E0B0E0C3DAE92DFA2D329793
:10361E009E2EAF2E76CF0E945B2769CF8DCEE52DE5
:10362E00F62D32960895E0E8E0936100E0E0E09335
:10363E006100EAE0E4B9E0E0E5B9E2E0E7B9E1E033
:10364E00E8B9E3E4EBB9E9E6EAB9E3EEE4BDE1E0BB
:10365E00E5BDE0E0E6BD0E949F27E0E0E09380003C
:10366E00E1E0E0938100E8E8E0938500E2E2E09398
:10367E008400E0E0E0938700E0938600E093890009
:10368E00E0938800E0938B00E0938A00E093B6000D
:10369E00E3EEE093B000E1E0E093B100E0E0E09310
:1036AE00B200E093B300E093B400E0936E00E093B9
:1036BE006F00E0937000E2E0E0936900E1E0EDBBA3
:1036CE00ECBBE0E0E0936800E093C100E0E8E0BF0F
:1036DE00E0E0E0937F00E0937E00E0ECE0937C007E
:1036EE00E4E8E0937A00E0E0E0937B00ECBDE09349
:1036FE00BC007894DD24EE240E94A3272CF40E94B3
:10370E0019270E942427F8CFA2E0B0E00E94E628F5
:10371E00E1E0E0939E070E94A827E2E0F0E0E0934C
:10372E009607F0939707E0E1F7E20E94D62525DA97
:10373E00299A0E94B2130E944E2629980E94812730
:10374E000E948127ECEBF5E20E94AE27E0E1F0E06B
:10375E000E94BC270E94C327A3E0B0E003DDE8E58A
:10376E00F0E00E94BC27E6ECF5E20E94CA270E9418
:10377E00CA270E94CF270E9481270E9486270E9477
:10378E008B27A0EDB7E00E94E62840980E94D6272E
:10379E000E948127E8ECF5E20E94AE270E94812765
:1037AE00E4E1F0E0FA93EA93E2EDF5E20E94D92724
:1037BE000E94DE270E94E527EDEDF5E20E94D92753
:1037CE000E94DE270E9481270E9486270E948B2757
:1037DE00DD24EE240E94A3272CF40E9419270E94B8
:1037EE002427F8CF0E94EA2719F00E940128FACF69
:1037FE00DD24EE240E94A3272CF40E9419270E9498
:10380E002427F8CF0E94B2130E94052820FE14C070
:10381E000E9481270E9481270E9409280E94CF279B
:10382E000E941028EFEEF5E20E94D9270E9415287B
:10383E00F59AE89420F810C00E9481270E948127F3
:10384E000E9409280E94CF270E941028EAEFF5E275
:10385E000E94D9270E9415280E9481270E94812745
:10386E000E9486270E948B270E94B2130E941B285B
:10387E00F59989C20E94B213E0E0E0938A070E9494
:10388E0081270E948127E5E0F6E20E941F280E9410
:10389E0015280E942428EEE0F6E20E941F280E94BE
:1038AE00DE270E94E527E7E1F6E20E941F280E942C
:1038BE0015280E9427280E942C280E947D270E94EE
:1038CE0081270E9481270E9486270E948B27DD2454
:1038DE00EE240E94A3272CF40E9419270E9424276D
:1038EE00F8CFF79AE0E0F799E1E00E2EA1EAB7E003
:1038FE000E94B729EF5FFF4F6F4F7F4F0E94BC2989
:10390E00319760407040DF01CB01EAE8F2E060E001
:10391E0070E00E943929E02109F458C0499918C075
:10392E000E94F4260E94F8260E943028D9F7DD2442
:10393E00EE240E9414272CF40E9419270E9424279B
:10394E00F8CFE0918A07EF5FE0938A070E94EA269C
:10395E004A991FC00E94F4260E9429270E943028EF
:10396E00D9F7DD24EE240E9414272CF40E94192787
:10397E000E942427F8CF0E943F2810F0F79807C026
:10398E00E0918A07E03019F0E150E0938A070E9437
:10399E00EA26E0E0E0939A07E0939B07A0918A075E
:1039AE00AA3018F0E9E0E0938A070E9427280E94C7
:1039BE002C28A2E0B0E00E941D150E9447280E940C
:1039CE004C280E9486270E948B278CCF0E94D627D8
:1039DE000E948127E7E1F6E20E941F280E94152827
:1039EE000E9447280E9481270E942C280E947D2732
:1039FE000E942428E0E2F6E20E94AE270E94812770
:103A0E000E945128EAE2F6E20E94AE270E94812728
:103A1E000E945628E4E3F6E20E94D9270E94DE2790
:103A2E000E9481270E9486270E948B27DD24EE2488
:103A3E000E94A3272CF40E9419270E942427F8CF56
:103A4E004A9BFECFACE2B1E00E94E6280E945B28C2
:103A5E00E0E04A99E1E00E2E0E9461283196FE9335
:103A6E00EE933197DF01E4EFF1E00E942D29E02182
:103A7E0019F00E940128ECCF499967C0DD24EE248D
:103A8E000E94A3272CF40E9419270E942427F8CF06
:103A9E000E945B280E94B2130E942428EFE3F6E2F4
:103AAE000E94D9270E94DE270E945128EAE4F6E2FE
:103ABE000E94D9270E94DE270E949A27A5E0B0E037
:103ACE000E94CF15A0E9B1E00E94E628499902C0F4
:103ADE00A895FCCF4A9B0AC0499B08C0A0919807A5
:103AEE00B0919907A436E0E0BE0708F00DC0A89586
:103AFE00A4E6B0E00E94E628E0919807F0919907BD
:103B0E0031960E946628E6CF49991FC0E0918A0738
:103B1E00F0E0E65FFF4FFF93EF9309DCAF91BF91AB
:103B2E000E94DE29DD24EE240E94A3272CF40E949D
:103B3E0019270E942427F8CFA0E9B1E00E94E628B9
:103B4E000E946B28E0E00E94DE290E94B2130E94C0
:103B5E006B280E94D229E0938907A0918A07B0E0D2
:103B6E00A65FBF4F0E94D229E0938C07E091890790
:103B7E00E03071F5772488240E9481270E948127E6
:103B8E00E5E5F6E20E9471280E94CF270E94512897
:103B9E00EDE5F6E20E9471280E94CF270E94812750
:103BAE000E9486270E948B270E9476286CF40E9422
:103BBE007D28E0E6F0E0DE16EF062CF40E94842865
:103BCE000E942427F6CFF0CFE2E2F1E07E2E8F2E78
:103BDE000E94D6270E948127E5E6F6E20E941F2862
:103BEE000E94152830908C074424EAE0F0E03E163F
:103BFE004F0624F40E948F28E0E31DC0E4E6F0E0B7
:103C0E003E164F064CF5A32DB42DEAE0F0E00E94CF
:103C1E006729E0939407F0939507A0919407B091CC
:103C2E009507EAE00E9449293E1A4F0A0E948F2802
:103C3E00E0919407E05DEA93E1E0F0E0FA93EA9315
:103C4E000E947D27E4E7F0E00E949428E32DE05DDA
:103C5E000E94E4260E947D270E949728DF01E091B2
:103C6E008907F0E0EA0FFB1F049000929F070E9465
:103C7E002428E0919F07E05D0E94E4260E947D27A4
:103C8E00ECE0F0E00E946F27EEE6F6E20E9471286B
:103C9E000E94DE270E9451280E942C280E947D2718
:103CAE00ECE0F0E0FA93EA930E945128E6E7F6E2A0
:103CBE000E9471280E94DE270E945628E0918907F3
:103CCE00E05D0E94E4260E947D27ECE0F0E0FA938E
:103CDE00EA930E945628EEE7F6E20E9471280E94AF
:103CEE00DE270E9481270E9486270E948B27DD24D3
:103CFE00EE240E94A3272CF40E9419270E94242749
:103D0E00F8CF0E941B280E945B28E0E0E0938B070F
:103D1E00A895E0E4E8B9E0E4F0ED6BE171E00E9413
:103D2E0056260E94B21377248824EAE2F0E07E162B
:103D3E008F06A4F40E94392732960E949428E091AF
:103D4E008C07A7E6EA9FF001E859F34FE70DF81D3F
:103D5E00A4910E94A7140E945627E7CF0E948127A4
:103D6E000E9481270E948627A1E0B0E00E94CF1515
:103D7E00DD24EE240E94A3272CF40E9419270E9412
:103D8E002427F8CF1AC00E94D6270E948127E6E882
:103D9E00F6E20E94D9270E9415280E9410280E9440
:103DAE005628E1E9F6E20E9471280E94DE270E9461
:103DBE0081270E9486270E948B27EEE1F0E00E9469
:103DCE006F27E9E9F6E20E9471280E9415280E94E9
:103DDE0010280E945128E1EAF6E20E9471280E9402
:103DEE001528DD24EE240E94A3272CF40E94192707
:103DFE000E942427F8CF0E949F280E948B270E94A2
:103E0E00B2130E94EA2719F00E940128FACF0E94ED
:103E1E000528F59B2CC120FC45C0F69A0E94D6279A
:103E2E000E948127E9EAF6E20E94D9270E94DE2746
:103E3E000E94A428A3EC0E94A928E3E0F0E0FA93E4
:103E4E00EA93A8EE0E94A928E4E0F0E0FA93EA9340
:103E5E00AFEE0E94A9280E944C28ADEE0E94A92820
:103E6E00E6E0F0E0FA93EA93AEEE0E94A928E7E0CE
:103E7E00F0E0FA93EA93A7EE0E94A9280E94812708
:103E8E000E9486270E948B27E0EEFCEF0E94D6252B
:103E9E00E0E8F8EA62E171E00E945626E1E0E09384
:103EAE007000E5C0E89420F80E94B2130E94AC287E
:103EBE000E9481270E948127E4EBF6E20E94AE2742
:103ECE000E942428EEEBF6E20E9471280E9415282B
:103EDE000E9410280E94E5270E94B1280E94812787
:103EEE000E9486270E948B27DD24EE240E94A327A2
:103EFE002CF40E9419270E942427F8CFF79A0E94CB
:103F0E00BF28E0E0F799E1E00E2E0E94612831977C
:103F1E00FE93EE93DF01E0E0F0E00E943329E02112
:103F2E0009F46FC049991BC00E94F4260E94BF2855
:103F3E000E94F8260E943028D9F7DD24EE240E9434
:103F4E0014272CF40E9419270E942427F8CF0E94D0
:103F5E00CD25E054F943624D7F4F0E9456264A9973
:103F6E0020C00E94F4260E94BF280E9429270E948A
:103F7E003028D9F7DD24EE240E9414272CF40E9459
:103F8E0019270E942427F8CF0E943F2810F0F79897
:103F9E0008C00E94CD25E05CF64C6D4270400E9438
:103FAE005626E0E0E0939A07E0939B070E94C42513
:103FBE00A03AEAE5BE07E2E38E07E0E09E0714F4BE
:103FCE000E94AC280E94C425A132E4E5BE07EAE6B1
:103FDE008E07E3E09E0734F0E0E2F4E56AE673E074
:103FEE000E9456260E94B2130E9410280E94E527B6
:103FFE000E94B1280E944C280E9486270E948B277F
:10400E0080CF0E94D6270E948127E6ECF6E20E941E
:10401E00D9270E94DE270E94A428A2ED0E94A9287B
:10402E00E3E0F0E0FA93EA93A0EF0E94A928E4E01F
:10403E00F0E0FA93EA93A0EE0E94A9280E944C2881
:10404E00ADEE0E94A928E6E0F0E0FA93EA93A1EF24
:10405E000E94A928E7E0F0E0FA93EA93A0EE0E940E
:10406E00A9280E9481270E9486270E948B27DD2483
:10407E00EE240E9414272CF40E9419270E94242754
:10408E00F8CFA0919807B0919907A93EE3E0BE073B
:10409E0010F00E94EA260E945B28E0E0E09369009F
:1040AE00EDBBECBBE1E0E0936F00EEE1F0E00E94CF
:1040BE006F27E1EDF6E20E94C2280E941528E6E67F
:1040CE00F0E00E946F27E4EDF6E20E94C2280E9403
:1040DE0015280E9410280E94E5270E94C728FA93EF
:1040EE00EA93A3E0B0E00E943619E6E3F0E00E9406
:1040FE006F270E94C327A2E0B0E00E94B918F69B7A
:10410E0027C0ECE3F0E00E9494280E94E025EFEF38
:10411E00FFEFEA1BFB0BDF01E1E4F0E00E94542904
:10412E00FA93EA93A2E0B0E00E94FB180E94CD251C
:10413E00E858F341604070400E945626ECE3F0E0F0
:10414E000E9494280E944728A1E0B0E00E94CF155B
:10415E00E0918E07F0918F0774960E94CF28EA1790
:10416E00FB0758F5A091A007AF5FA093A007A15041
:10417E00A33010F1E6E3F0E00E946F27E0E3F0E0F9
:10418E000E946F27A2E0B0E00E948414DD24EE248A
:10419E000E94A3272CF40E9419270E942427F8CFEF
:1041AE000E940528DD24EE240E94A3272CF40E94F1
:1041BE0019270E942427F8CF03C0E0E0E093A00760
:1041CE000E949F280E948B270E94C728E0939A077F
:1041DE00F0939B07E4E1F0E0E0939607F0939707E6
:1041EE00A2ECB1E00E94E62849993BC04A9924C04E
:1041FE000E9461283196FE93EE933797E0F00E946D
:10420E00D627E4E1F0E0FA93EA93E7EDF6E20E94B6
:10421E00D9270E94DE270E94E527E2EEF6E20E94F1
:10422E0071280E94CF270E949A270E948B270E94F6
:10423E001B280E94EA2615C00E94CF28A83EE3E064
:10424E00BE0778F4DD24EE240E9414272CF40E947D
:10425E0019270E942427F8CF0E94D4283A960E944C
:10426E00D9280E9429270E94C425E0EEF3E964E0D4
:10427E0070E00E943929E02909F457C0F5993AC037
:10428E00F39938C00E94C425A03EE3E9BE07E4E0DE
:10429E008E07E0E09E0774F5F39A0E94C4250E94F3
:1042AE00F32944F5A0918907A930B1F47724882425
:1042BE000E9476286CF40E947D28E0E6F0E0DE167F
:1042CE00EF062CF40E9484280E942427F6CFF0CF0C
:1042DE000E946B28E0E00CC0E0918A07F0E0E0500D
:1042EE00F0400F010E946B280E94D229EF5FD0018F
:1042FE000E94DE290E94CF280E94EF29B0F40E946E
:10430E00CF28549718F40E94A82705C00E94D428DD
:10431E003A970E94D928DD24EE240E9414272CF40B
:10432E000E9419270E942427F8CFF2998EC0F59982
:10433E008CC00E94C425A034E4E5BE07E9E88E07D0
:10434E00E0E09E070CF081C0A0919F07A53048F0D9
:10435E000E94D4280E941229E0938507F0938607C5
:10436E0005C0E0E0E0938507E09386070E9497285A
:10437E000E94DE28A491A53048F00E94D4280E9405
:10438E001229E0938707F093880705C0E0E0E093D9
:10439E008707E0938807E0918707F09188070E94CE
:1043AE00CF28EA0FFB1FA0918507B0918607EA1B65
:1043BE00FB0BE0938707F09388070E94A8277724CA
:1043CE008824E72DF82D31967E2E8F2E34978CF47F
:1043DE00A4E6B0E00E94E628DD24EE24ECE2F1E053
:1043EE00DE16EF062CF40E9484280E942427F6CFB6
:1043FE00E8CF0E9497280E94DE28049000929F0723
:10440E00E0918707F09188070E94D9280E942428FE
:10441E00E0919F07E05D0E94E4260E947D27ECE07C
:10442E00F0E00E946F27E0EF0E94E4260E947D27B5
:10443E000E9481270E94A428E7E1F0E0FA93EA9314
:10444E00A3E0B0E00E94CF15F29A0E94C4250E940C
:10445E00F3290CF470C00E94A8270E949F27E0E861
:10446E00E0930103EEEAE09302030E949625E2E058
:10447E000E949D25F894DD24EE240E94A3272CF49F
:10448E000E9419270E942427F8CF0E940528DD24B8
:10449E00EE240E94A3272CF40E9419270E942427A1
:1044AE00F8CF0E940528DD24EE240E94A3272CF4C9
:1044BE000E9419270E942427F8CF0E940528DD2488
:1044CE00EE240E94A3272CF40E9419270E94242771
:1044DE00F8CF0E940528DD24EE240E94A3272CF499
:1044EE000E9419270E942427F8CF0E949F27E0E000
:1044FE00E093BC00EAB9E4B9E7B9E8B9EBB95E9A62
:10450E00E5B9E093B600E093B000E093B100E4B7F4
:10451E00E77FE4BFE0916000E861E0936000E0E0D7
:10452E00E0936000E0937C00E0937A00E0E1E5BF69
:10453E0004D00E94A822CDCDFFCFE3B7E160E3BF48
:10454E000895E3B7E17FE460E3BFEFB77894889511
:10455E00EFBF0895BA93AA931A93689422F8E7E0EE
:10456E00E0938407E0E0E093AD07E093AE07E093BD
:10457E00AF07E093B007449A459AE093BC00E091F0
:10458E00B900EC7FE093B900E981FA81A0E4BFE1C4
:10459E000E9454291E2F183008F018501093B8009E
:1045AE00E091BC00E078E564E093BC0018812396AE
:1045BE000895AA93249722FE66C0EA85EE0FE09333
:1045CE00A507E885F985E093A607F093A707E0E035
:1045DE00E0938207EF81E093A807ED81FE81E093DF
:1045EE00A907F093AA07E0E0E0938307EC81E0933C
:1045FE00AB07E6E0E09384077894EF81E03081F03A
:10460E00E885F985309709F43EC0EC81E03021F061
:10461E00AD81BE81109709F001C035C068940DC000
:10462E00EC81E03051F1ED81FE81309761F1E09146
:10463E00A507E160E093A507E89421F8E89422F835
:10464E00E091BC00EF70E06AE093BC00E0E2F1EABA
:10465E0067E070E00E94C62922FC0FC00E94C129AB
:10466E003197604070400E94C62931F4E5E0E09336
:10467E008407689422F807C0EFCFA0918407E0E08A
:10468E000E94172901C0E0E02B9608950A921A9213
:10469E00FA926A937A938A939A93AA93BA93EA9325
:1046AE00FA93EFB7EA930E94F929109183070091CC
:1046BE0082073091A80720918407E12FA091A907C6
:1046CE00B091AA07F0E0EA0FFB1FAF01E091B9002D
:1046DE00E87FE83011F420E002C0E03119F4E091F7
:1046EE00A50710C0E83111F0E83249F5031798F428
:1046FE00E02F0F5FA091A607B091A707F0E0AE0FD5
:10470E00BF1FEC91E093BB00E091BC00EF70E0683E
:10471E00E093BC0013C0E091AB071E1770F4E0915C
:10472E00A507E160E093A507E89421F8E091BC00AD
:10473E00EF70E06AE093BC0013C138C011C1E035E0
:10474E0031F4E091BB00DA01EC931F5F02C0E0345C
:10475E0089F4E091AB07E1501E1728F0E091BC0000
:10476E00EF70E06804C0E091BC00EF70E06CE09385
:10477E00BC00F6C0E83531F4E091BB00DA01EC93F1
:10478E001F5F02C0E03209F402C0E03309F402C038
:10479E00E83469F4203051F421FE03C0031728F0E9
:1047AE0005C0E091AB071E1708F424E0D1C0E83332
:1047BE0031F422E0E091BC00EF70E068CDC0E83645
:1047CE0011F0E83711F422E005C0E03611F0E037C1
:1047DE00A9F420E010E0E89421F8E091AC07E03075
:1047EE0031F421E0E091BC00EF70E06804C0E0918C
:1047FE00BC00EF70E06CE093BC00B2C0E03811F08A
:10480E00E03941F521FE02C021E0A2C0E091BB00DB
:10481E00DA01EC931F5FE091AC071E17C0F4E09134
:10482E00AD07F091AE07309711F426E091C0A0E0ED
:10483E00E091AD07F091AE070995E03039F0E091C7
:10484E00BC00EF70E06CE093BC008AC002C06894BC
:10485E0021F802C0E83809F402C0E83939F4E091D1
:10486E00BC00EF70E068E093BC007AC0E03AB9F4A7
:10487E00E091BC00EF70E06CE093BC00689422F80D
:10488E00E091AD07F091AE07309739F0A1E0E091DD
:10489E00AD07F091AE07099501C026E061C0E03B7F
:1048AE0011F422E002C0E83AB9F4E091AF07F091BA
:1048BE00B007309759F0A0E0E091AF07F091B00744
:1048CE0009953E2FE03011F020E002C026E040C0F6
:1048DE0000E0E89421F802C0E83B01F521FE02C099
:1048EE0021E036C0E02F0F5FA091A607B091A70779
:1048FE00F0E0AE0FBF1FEC91E093BB00031728F45E
:10490E00E091BC00EF70E06C06C0689421F8E09175
:10491E00BC00EF70E068E093BC0022C0E03C11F0F8
:10492E00E83C99F4E091BC00EF70E06CE093BC00C1
:10493E00E091AF07F091B007309731F0A1E0E09130
:10494E00AF07F091B007099509C0E03049F423E0B4
:10495E00E091BC00EF70E06DE093BC00689422F82B
:10496E001093830700938207209384073093A80740
:10497E000E94002A2696E991EFBFF991E991B9912B
:10498E00A9919991899179916991F99019900990CC
:10499E0018951A930A9300E010E00895AA81BB813E
:1049AE00E8E0F0E00E9467290E940B290E94092985
:1049BE00AC81BD81EA0FFB1FEE57FC4FBF0110808B
:1049CE00EA81E770A1E00E9401290895A889B989BA
:1049DE00EC85FD85EA1BFB0BDF01FA010E944F29D6
:1049EE008F01AE85BF85EA85FB85EA1BFB0BAE8189
:1049FE00BF810E944F299F01E889F989FA93EA93B2
:104A0E00E889F989FA93EA93AC85BD850C94C413B1
:104A1E00AE85BF85EA0FFB1F0895AA85BB85EA0FF9
:104A2E00FB1F0895EA85FB85FA93EA930895AE85F8
:104A3E00BF85AE0FBF1F11970895EB81FC810E94B9
:104A4E000B290E940929AD81BE81EA0FFB1F089533
:104A5E00BA93AA9321970E94F929AE85BF85A038F3
:104A6E00E0E0BE070895EF81F885A6E0B0E00E9471
:104A7E004F29DDCFEF81F8850E940B29AC85BD85CE
:104A8E00AE0FBF1F1197BB230895AB85E5E0EA9FDC
:104A9E00F001E20FF31FE859FF4F54910895FA9376
:104AAE00EA93AD85BE850C94C413EF81F885A42FCF
:104ABE00B0E0AE17BF070895EF81F885AE81B0E084
:104ACE00AE17BF070895EF81F885D9010E944F29CF
:104ADE00AE85BF85AE0FBF1FE42FF0E0EA0FFB1FC0
:104AEE00FA93EA93E985FA85D8010E944F29AE859B
:104AFE00BF85AE0FBF1FE885F0E0EA0FFB1FCFCFDB
:104B0E00EC85FD850E94092983CFA6E0B0E00E94C6
:104B1E004F2908950E940B290E9409290895ECE35C
:104B2E00EA93E1E0F3E0FA93EA930895EA93E0E082
:104B3E00F3E0FA93EA93A0E00C94E022BA93AA93DE
:104B4E000E94FB290895E0917A00E061E0937A00DB
:104B5E00E0917800F09179000895E0919307E09349
:104B6E008500E0919207E09384000895E0919C0700
:104B7E00EF5FE0939C07E1500895A091A107B091DB
:104B8E00A2078091A3079091A4070895E091A10731
:104B9E00F091A2076091A3077091A4070895E09386
:104BAE009207F09393070895E0919207F09193077F
:104BBE000895A0919207B09193070895E091900700
:104BCE00F0919107A0918E07B0918F07AE17BF0796
:104BDE000895E0919E07EF5FE0939E070895E7B575
:104BEE00AE2FE0919E07EA170895E7B5A0919E07B4
:104BFE00EA1B0895E8B5AE2FE0919E07EA170895D7
:104C0E00E8B5A0919E07EA1BE8BD0895E0E0E8BD77
:104C1E00E1E0E0939E070895E0919E07E0939E07E2
:104C2E00089508B4E0919E07F0E0A8E9B0E00E9474
:104C3E00CB29EA1BFB0BA02DB0E0AE17BF070895E2
:104C4E00E8B5A0919E07EA0F089507B4E0919E077C
:104C5E00F0E0AFEFB0E00E94CB29EA1BFB0BA02DDA
:104C6E00B0E00E9427290E2EE7B5AE2FE0E40E9499
:104C7E001C29E0210895E7B5A0919E07EA0FE7BD34
:104C8E000895EFEFE7BDE1E0E0939E070895A0E001
:104C9E000E944216E0938E07F0938F070895E093DB
:104CAE00A107F093A2076093A3077093A40708953A
:104CBE00E0E3EA93E1E0F0E0FA93EA93AB85BC859A
:104CCE000E941D15EC81FD810895ACE0B0E00E94BC
:104CDE004F29A3CEFA93EA93A5CEAE81BF81EAE027
:104CEE00F0E00E9467298F01AAE0B0E00E944F29F0
:104CFE00AE81BF81AE1BBF0BAE83BF8393CEAE81A1
:104D0E00BF81E4E6F0E00E9467299F01A4E6B0E0CF
:104D1E000E944F29AE81BF81AE1BBF0BEAE0F0E0CF
:104D2E000E9467298F01F901A4E6B0E00E944F2985
:104D3E00AE81BF81AE1BBF0BBD01F801AAE0B0E092
:104D4E000E944F29DB01AE1BBF0BAE83BF836ACE21
:104D5E00E1E0F0E0FA93EA93AB85BC850E941D1565
:104D6E00EC81FD810895A2E1B0E00E944F2955CE5D
:104D7E00EA85E05DEA93E1E0F0E0FA93EA93AB8531
:104D8E00BC850C941D15EA93E1E0F0E0FA93EA93EA
:104D9E00AB85BC850C941D150E944F29AE81BF8139
:104DAE00AE1BBF0BAE83BF830895EAE0F0E00E9416
:104DBE0067299F01AAE0B0E00895EA93E1E0F0E0F0
:104DCE00FA93EA930895E0E0E093A107E093A20737
:104DDE00E093A307E093A4070895A8ECB0E00C9429
:104DEE00E628E0E0499BE1E00E2E0895A1EAB7E047
:104DFE000E94B729EF5FFF4F6F4F7F4F0E94BC2974
:104E0E00319760407040DF01CB01E0EAF6E861E0E7
:104E1E0070E00E943929E0210895E0E2F0E0DE160C
:104E2E00EF060895299A80E293E00197F1F7299809
:104E3E0080E293E00197F1F70895E1E0F0E0DE0EF5
:104E4E00EF1E0895E0E04A9BE1E00E2E0895A32D9B
:104E5E00B42DA50DB61D0895EDE2F0E00E942729B0
:104E6E000E2EF5CFE72DF82D50CEE0E04A99E1E079
:104E7E00F0E00895AE0FBF1FE0E04999E1E0F0E0E9
:104E8E000E94CB29EA1BFB0BA7E6B0E00E9441294A
:104E9E00E859F34FE70DF81DA4910C94A714E1E027
:104EAE00F0E07E0E8F1E0895E1E0F0E03E0E4F1E04
:104EBE000895A0E0499BA1E0E0E04A9BE1E0EA2BE7
:104ECE000895E72DF82DACE0B0E00E944F2908952B
:104EDE00FA93EA93E0E1F0E0FA93EA930895A7E6F5
:104EEE00B0E00E944129E859F34F0895A2E0B0E0E6
:104EFE000C94CD14E0E0F0E0FA93EA930895EFE716
:104F0E00F0E0FA93EA930895A7E0B0E00C94CF1581
:104F1E00E919FA09BF01D5CFE60FF71FEB0DFC1DFE
:104F2E00EE57FC4F0895E2E0F0E0FA93EA93E7CFF4
:104F3E00E0E0E7BDE8BD0895E0E8F0E0DE16EF063C
:104F4E000895E0E0E0939007E09391070895FA93B7
:104F5E00EA93E9E0F0E0FA93EA93E1E0F0E0FA9305
:104F6E00EA93A2E0B0E00C949515FA93EA93E8E187
:104F7E00F0E0FA93EA930895E0918E07F0918F078F
:104F8E00FA93EA930895FA93EA93E1E0F0E0089534
:104F9E00FA93EA93A3E0B0E00E949515ABCF0E947E
:104FAE00B213A8CFFA93EA93EAE0F0E0ECCFFA93CB
:104FBE00EA93A2E0B0E00E9495159CCFE8E2F0E003
:104FCE00FA93EA930895A0E04A99A1E0E0E04999A6
:104FDE00E1E0EA230E2EA8E9B7E0ED91FD913196BE
:104FEE00FE93EE933197DF01E8EEF3E00E942D2958
:104FFE00E0210895AAE0B0E00C94E628A2E3B0E028
:10500E000C94E628E8EEF5E2FA93EA93E6E0F0E097
:10501E00BACFEEE1F0E0FA93EA930895FA93EA93A9
:10502E00A2E0B0E00C949515A8EEB3E00C94E6283F
:10503E00FA93EA93E8E0F0E0A6CFE0E0F0E048CFA4
:10504E00E0E6F0E0FA93EA93B9CFE0918A07E05DEB
:10505E00B4CEAAE9B7E0ED91FD913196FE93EE93B1
:10506E003197DF01E8EEFDEF0E942D29E021089532
:10507E00A0919A07B0919B07A83EEDEFBE07089549
:10508E00E0E6F0E0FA93EA930895E5E0F0E0FA93B3
:10509E00EA930895E0E2F0E0FA93EA930895E0E3EC
:1050AE00F0E0FA93EA930895E0E0E0939807E09336
:1050BE0099070895A8E9B7E0ED91FD910895E09361
:1050CE009807F09399070895A0918A07B0E0A05031
:1050DE00B0400895FA93EA93E7E0F0E054CFE72D5D
:1050EE00F82D31967E2E8F2E75970895AEE1B0E095
:1050FE000E94E628DD24EE240895299A80EB94E0A0
:10510E000197F1F7299880EB94E00197F1F7089554
:10511E00E8E6F0E0FA93EA93EDCEFA93EA93EACE5C
:10512E00E0918C07A4E1EA9FF001EC57F14E08954F
:10513E00E8E1F0E0FA93EA93F6CEE2E0F0E0FA93DB
:10514E00EA9308950E94A714D5CEE0EAFAE562E349
:10515E0070E0A5CD12DDE0E1F7E260E070E00E94C4
:10516E009129FA93EA93A3E0B0E00E943619C2CED9
:10517E00E6E9F0E0A4CFFA93EA93E2E0F0E003CFA1
:10518E00FCDCE0E1F7E260E070E00E949129089516
:10519E00A0919007B09191070895E0919007F0913A
:1051AE0091070895E0939007F09391070895DF011A
:1051BE00E0918907F0E03A96EA0FFB1F08951096EA
:1051CE0039F080EA9FE00197F1F7A8951197C9F79A
:1051DE000895AE1BBF0B860B970B0895F195E195C5
:1051EE00F0400895F09560957095E195FF4F6F4FE3
:1051FE007F4F0895EE230E2EEA2F19F0EE0F0A942C
:10520E00E9F70895EE0FFF1FEE0FFF1FEE0FFF1FC2
:10521E00EE0FFF1F0895F695E795F695E79508951D
:10522E00EA17E1E009F0EE270895AE17E1E008F085
:10523E00EE270895AE17BF07E1E00CF4EE270895B0
:10524E00AE17BF07E1E00CF0EE270895AE17BF07CB
:10525E00E1E008F0EE270895EA17FB07E1E008F019
:10526E00EE270895AE17BF0786079707E1E00CF00B
:10527E00EE270895FA9FF02DEB9FF00DEA9FE02D9B
:10528E00F10D08956E2F6A9FF0016B9FF00D08953A
:10529E0046D0F0DF0EF4A2DF08950024112490E131
:1052AE00AA0FBB1F001C111C0E1A1F0A18F40E0E9B
:1052BE001F1E01C0A1609A9599F7FD01D0010895B6
:1052CE002ED0EBDF0EF48ADF08953F934F935F935A
:1052DE00002411244427552730E2AA0FBB1F881F34
:1052EE00991F001C111C441F551F0E1A1F0A460B36
:1052FE00570B28F40E0E1F1E461F571F01C0A1602C
:10530E003A9559F7FD01BC01D001CA015F914F9149
:10531E003F91089512D0D9DF0EF464DF0895E8941A
:10532E00F7FF02C05BDF6894B7FF06C0A095B0958B
:10533E00119600F8039400FA0895E89477FF02C0DE
:10534E0051DF689497FF0BC00024A095B09580950F
:10535E0090951196801D901D00F8039400FA089503
:10536E00ED91FD916D917D9108957E936E93FE93D7
:10537E00EE930895E881F9816A817B810895E8832F
:10538E00F9836A837B8308951B2EBF2FF12D1A2E6E
:10539E00AE2FE12D0895F999FECFFF93FFB7F89444
:1053AE00A1BDB2BDF89AE0B5FFBFFF910895F99B7C
:1053BE0002C0A895FCCF9FB7F894A1BDB2BDF89AD4
:1053CE0080B5E81719F0E0BDFA9AF99A9FBF0895D3
:1053DE0000240A160B06089500240A160B0608066A
:1053EE00090608955A934A933A932A931A930A9365
:1053FE0008955D814C813B812A8119810881089530
:00000001FF
